{
  "contractName": "GestionChaines",
  "abi": [
    {
      "inputs": [],
      "name": "message",
      "outputs": [
        {
          "internalType": "string",
          "name": "",
          "type": "string"
        }
      ],
      "stateMutability": "view",
      "type": "function"
    },
    {
      "inputs": [
        {
          "internalType": "string",
          "name": "_message",
          "type": "string"
        }
      ],
      "name": "setMessage",
      "outputs": [],
      "stateMutability": "nonpayable",
      "type": "function"
    },
    {
      "inputs": [],
      "name": "getMessage",
      "outputs": [
        {
          "internalType": "string",
          "name": "",
          "type": "string"
        }
      ],
      "stateMutability": "view",
      "type": "function"
    },
    {
      "inputs": [
        {
          "internalType": "string",
          "name": "a",
          "type": "string"
        },
        {
          "internalType": "string",
          "name": "b",
          "type": "string"
        }
      ],
      "name": "concatener",
      "outputs": [
        {
          "internalType": "string",
          "name": "",
          "type": "string"
        }
      ],
      "stateMutability": "pure",
      "type": "function"
    },
    {
      "inputs": [
        {
          "internalType": "string",
          "name": "a",
          "type": "string"
        }
      ],
      "name": "concatenerAvec",
      "outputs": [
        {
          "internalType": "string",
          "name": "",
          "type": "string"
        }
      ],
      "stateMutability": "view",
      "type": "function"
    },
    {
      "inputs": [
        {
          "internalType": "string",
          "name": "s",
          "type": "string"
        }
      ],
      "name": "longueur",
      "outputs": [
        {
          "internalType": "uint256",
          "name": "",
          "type": "uint256"
        }
      ],
      "stateMutability": "pure",
      "type": "function"
    },
    {
      "inputs": [
        {
          "internalType": "string",
          "name": "a",
          "type": "string"
        },
        {
          "internalType": "string",
          "name": "b",
          "type": "string"
        }
      ],
      "name": "comparer",
      "outputs": [
        {
          "internalType": "bool",
          "name": "",
          "type": "bool"
        }
      ],
      "stateMutability": "pure",
      "type": "function"
    }
  ],
  "bytecode": "0x608060405234801561000f575f80fd5b50610a998061001d5f395ff3fe608060405234801561000f575f80fd5b506004361061007b575f3560e01c80634f759687116100595780634f759687146100fb5780639103ca331461012b578063ce6d41de1461015b578063e21f37ce146101795761007b565b806317646f891461007f578063368b8772146100af578063413d4384146100cb575b5f80fd5b610099600480360381019061009491906104c9565b610197565b6040516100a69190610559565b60405180910390f35b6100c960048036038101906100c49190610572565b6101ef565b005b6100e560048036038101906100e09190610572565b610201565b6040516100f29190610633565b60405180910390f35b61011560048036038101906101109190610572565b61022c565b604051610122919061066b565b60405180910390f35b610145600480360381019061014091906104c9565b610236565b6040516101529190610633565b60405180910390f35b610163610262565b6040516101709190610633565b60405180910390f35b6101816102f1565b60405161018e9190610633565b60405180910390f35b5f816040516020016101a991906106be565b60405160208183030381529060405280519060200120836040516020016101d091906106be565b6040516020818303038152906040528051906020012014905092915050565b805f90816101fd91906108ce565b5050565b60605f82604051602001610216929190610a1d565b6040516020818303038152906040529050919050565b5f81519050919050565b6060828260405160200161024b929190610a40565b604051602081830303815290604052905092915050565b60605f805461027090610701565b80601f016020809104026020016040519081016040528092919081815260200182805461029c90610701565b80156102e75780601f106102be576101008083540402835291602001916102e7565b820191905f5260205f20905b8154815290600101906020018083116102ca57829003601f168201915b5050505050905090565b5f80546102fd90610701565b80601f016020809104026020016040519081016040528092919081815260200182805461032990610701565b80156103745780601f1061034b57610100808354040283529160200191610374565b820191905f5260205f20905b81548152906001019060200180831161035757829003601f168201915b505050505081565b5f604051905090565b5f80fd5b5f80fd5b5f80fd5b5f80fd5b5f601f19601f8301169050919050565b7f4e487b71000000000000000000000000000000000000000000000000000000005f52604160045260245ffd5b6103db82610395565b810181811067ffffffffffffffff821117156103fa576103f96103a5565b5b80604052505050565b5f61040c61037c565b905061041882826103d2565b919050565b5f67ffffffffffffffff821115610437576104366103a5565b5b61044082610395565b9050602081019050919050565b828183375f83830152505050565b5f61046d6104688461041d565b610403565b90508281526020810184848401111561048957610488610391565b5b61049484828561044d565b509392505050565b5f82601f8301126104b0576104af61038d565b5b81356104c084826020860161045b565b91505092915050565b5f80604083850312156104df576104de610385565b5b5f83013567ffffffffffffffff8111156104fc576104fb610389565b5b6105088582860161049c565b925050602083013567ffffffffffffffff81111561052957610528610389565b5b6105358582860161049c565b9150509250929050565b5f8115159050919050565b6105538161053f565b82525050565b5f60208201905061056c5f83018461054a565b92915050565b5f6020828403121561058757610586610385565b5b5f82013567ffffffffffffffff8111156105a4576105a3610389565b5b6105b08482850161049c565b91505092915050565b5f81519050919050565b5f82825260208201905092915050565b5f5b838110156105f05780820151818401526020810190506105d5565b5f8484015250505050565b5f610605826105b9565b61060f81856105c3565b935061061f8185602086016105d3565b61062881610395565b840191505092915050565b5f6020820190508181035f83015261064b81846105fb565b905092915050565b5f819050919050565b61066581610653565b82525050565b5f60208201905061067e5f83018461065c565b92915050565b5f81905092915050565b5f610698826105b9565b6106a28185610684565b93506106b28185602086016105d3565b80840191505092915050565b5f6106c9828461068e565b915081905092915050565b7f4e487b71000000000000000000000000000000000000000000000000000000005f52602260045260245ffd5b5f600282049050600182168061071857607f821691505b60208210810361072b5761072a6106d4565b5b50919050565b5f819050815f5260205f209050919050565b5f6020601f8301049050919050565b5f82821b905092915050565b5f6008830261078d7fffffffffffffffffffffffffffffffffffffffffffffffffffffffffffffffff82610752565b6107978683610752565b95508019841693508086168417925050509392505050565b5f819050919050565b5f6107d26107cd6107c884610653565b6107af565b610653565b9050919050565b5f819050919050565b6107eb836107b8565b6107ff6107f7826107d9565b84845461075e565b825550505050565b5f90565b610813610807565b61081e8184846107e2565b505050565b5b81811015610841576108365f8261080b565b600181019050610824565b5050565b601f8211156108865761085781610731565b61086084610743565b8101602085101561086f578190505b61088361087b85610743565b830182610823565b50505b505050565b5f82821c905092915050565b5f6108a65f198460080261088b565b1980831691505092915050565b5f6108be8383610897565b9150826002028217905092915050565b6108d7826105b9565b67ffffffffffffffff8111156108f0576108ef6103a5565b5b6108fa8254610701565b610905828285610845565b5f60209050601f831160018114610936575f8415610924578287015190505b61092e85826108b3565b865550610995565b601f19841661094486610731565b5f5b8281101561096b57848901518255600182019150602085019450602081019050610946565b868310156109885784890151610984601f891682610897565b8355505b6001600288020188555050505b505050505050565b5f81546109a981610701565b6109b38186610684565b9450600182165f81146109cd57600181146109e257610a14565b60ff1983168652811515820286019350610a14565b6109eb85610731565b5f5b83811015610a0c578154818901526001820191506020810190506109ed565b838801955050505b50505092915050565b5f610a28828561099d565b9150610a34828461068e565b91508190509392505050565b5f610a4b828561068e565b9150610a57828461068e565b9150819050939250505056fea264697066735822122088b0246a1b0b4687516129d3a37b3b7ce46f33e017bfca6a9ff7d41eb41315b064736f6c63430008150033",
  "immutableReferences": {},
  "source": "// SPDX-License-Identifier: MIT\npragma solidity >=0.4.22 <0.9.0;\n\ncontract GestionChaines {\n  \n    string public message;\n\n    function setMessage(string memory _message) public {\n        message = _message;\n    }\n\n    function getMessage() public view returns (string memory) {\n        return message;\n    }\n\n    // Concatenation de  deux chaines passe en parametres\n    function concatener(string memory a, string memory b) public pure returns (string memory) {\n        return string.concat(a, b);\n    }\n\n    // Concatenation de la variable d'etat message avec une autre chaine\n    function concatenerAvec(string memory a) public view returns (string memory) {\n        return string.concat(message, a);\n    }\n\n    // Retourne la longueur d'une chaine\n    function longueur(string memory s) public pure returns (uint) {\n        return bytes(s).length;\n    }\n\n    // Comparaison de deux chaines de caracteres et retourne un boolean\n    function comparer(string memory a, string memory b) public pure returns (bool) {\n        return keccak256(abi.encodePacked(a)) == keccak256(abi.encodePacked(b));\n    }\n\n}\n",
  "sourcePath": "D:\\FST_PROJETS\\blockChain_Projet\\contracts\\GestionChaines.sol",
  "compiler": {
    "name": "solc",
    "version": "0.8.21+commit.d9974bed.Emscripten.clang"
  },
  "schemaVersion": "3.4.16",
  "updatedAt": "2026-06-07T02:34:42.888Z",
  "devdoc": {
    "kind": "dev",
    "methods": {},
    "version": 1
  },
  "userdoc": {
    "kind": "user",
    "methods": {},
    "version": 1
  }
}