{
  "contractName": "Payment",
  "abi": [
    {
      "inputs": [
        {
          "internalType": "address",
          "name": "_recipient",
          "type": "address"
        }
      ],
      "stateMutability": "nonpayable",
      "type": "constructor"
    },
    {
      "inputs": [],
      "name": "recipient",
      "outputs": [
        {
          "internalType": "address",
          "name": "",
          "type": "address"
        }
      ],
      "stateMutability": "view",
      "type": "function"
    },
    {
      "inputs": [],
      "name": "receivePayment",
      "outputs": [],
      "stateMutability": "payable",
      "type": "function"
    },
    {
      "inputs": [],
      "name": "withdraw",
      "outputs": [],
      "stateMutability": "nonpayable",
      "type": "function"
    }
  ],
  "bytecode": "0x608060405234801561001057600080fd5b50604051610602380380610602833981810160405281019061003291906100db565b806000806101000a81548173ffffffffffffffffffffffffffffffffffffffff021916908373ffffffffffffffffffffffffffffffffffffffff16021790555050610108565b600080fd5b600073ffffffffffffffffffffffffffffffffffffffff82169050919050565b60006100a88261007d565b9050919050565b6100b88161009d565b81146100c357600080fd5b50565b6000815190506100d5816100af565b92915050565b6000602082840312156100f1576100f0610078565b5b60006100ff848285016100c6565b91505092915050565b6104eb806101176000396000f3fe6080604052600436106100345760003560e01c80633ccfd60b1461003957806366d003ac14610050578063835c19f31461007b575b600080fd5b34801561004557600080fd5b5061004e610085565b005b34801561005c57600080fd5b506100656101e3565b604051610072919061028d565b60405180910390f35b610083610207565b005b60008054906101000a900473ffffffffffffffffffffffffffffffffffffffff1673ffffffffffffffffffffffffffffffffffffffff163373ffffffffffffffffffffffffffffffffffffffff1614610113576040517f08c379a000000000000000000000000000000000000000000000000000000000815260040161010a9061032b565b60405180910390fd5b60008060009054906101000a900473ffffffffffffffffffffffffffffffffffffffff1673ffffffffffffffffffffffffffffffffffffffff164760405161015a9061037c565b60006040518083038185875af1925050503d8060008114610197576040519150601f19603f3d011682016040523d82523d6000602084013e61019c565b606091505b50509050806101e0576040517f08c379a00000000000000000000000000000000000000000000000000000000081526004016101d790610403565b60405180910390fd5b50565b60008054906101000a900473ffffffffffffffffffffffffffffffffffffffff1681565b6000341161024a576040517f08c379a000000000000000000000000000000000000000000000000000000000815260040161024190610495565b60405180910390fd5b565b600073ffffffffffffffffffffffffffffffffffffffff82169050919050565b60006102778261024c565b9050919050565b6102878161026c565b82525050565b60006020820190506102a2600083018461027e565b92915050565b600082825260208201905092915050565b7f457272657572203a205365756c206c652064657374696e61746169726520706560008201527f75742072657469726572206c657320666f6e6473000000000000000000000000602082015250565b60006103156034836102a8565b9150610320826102b9565b604082019050919050565b6000602082019050818103600083015261034481610308565b9050919050565b600081905092915050565b50565b600061036660008361034b565b915061037182610356565b600082019050919050565b600061038782610359565b9150819050919050565b7f457272657572203a204c65207472616e73666572742064657320666f6e64732060008201527f61206563686f7565000000000000000000000000000000000000000000000000602082015250565b60006103ed6028836102a8565b91506103f882610391565b604082019050919050565b6000602082019050818103600083015261041c816103e0565b9050919050565b7f4c65206d6f6e74616e7420656e766f796520646f69742065747265207375706560008201527f7269657572206120302057656900000000000000000000000000000000000000602082015250565b600061047f602d836102a8565b915061048a82610423565b604082019050919050565b600060208201905081810360008301526104ae81610472565b905091905056fea26469706673582212209307f1c9acf056df2a0255f23b62755223ccbb2a7c614b65b45d59106a88e3b464736f6c63430008150033",
  "immutableReferences": {},
  "source": "// SPDX-License-Identifier: MIT\npragma solidity ^0.8.21;\n\ncontract Payment {\n  \n\n   address public recipient;\n\n    constructor(address _recipient) {\n        recipient = _recipient;\n    }\n\n    // Permet au contrat de recevoir des Ethers\n    function receivePayment() public payable {\n        // On refuse les transactions vides (0 Wei)\n        require(msg.value > 0, \"Le montant envoye doit etre superieur a 0 Wei\");\n    }\n\n    // Permet au destinataire de recuperer les fonds accumules\n    function withdraw() public {\n        // Verification de l'identite de l'appelant\n        require(msg.sender == recipient, \"Erreur : Seul le destinataire peut retirer les fonds\");\n\n        // Transfert moderne de tout le solde du contrat pour eviter le Warning de transfer()\n        (bool succes, ) = payable(recipient).call{value: address(this).balance}(\"\");\n        require(succes, \"Erreur : Le transfert des fonds a echoue\");\n    }\n}\n\n",
  "sourcePath": "D:\\FST_PROJETS\\blockChain_Projet\\contracts\\Payment.sol",
  "compiler": {
    "name": "solc",
    "version": "0.8.21+commit.d9974bed.Emscripten.clang"
  },
  "schemaVersion": "3.4.16",
  "updatedAt": "2026-06-14T02:21:31.413Z",
  "devdoc": {
    "kind": "dev",
    "methods": {},
    "version": 1
  },
  "userdoc": {
    "kind": "user",
    "methods": {},
    "version": 1
  }
}