{
  "contractName": "SommeListeNombre",
  "abi": [
    {
      "inputs": [],
      "stateMutability": "nonpayable",
      "type": "constructor"
    },
    {
      "inputs": [
        {
          "internalType": "uint256",
          "name": "",
          "type": "uint256"
        }
      ],
      "name": "nombres",
      "outputs": [
        {
          "internalType": "uint256",
          "name": "",
          "type": "uint256"
        }
      ],
      "stateMutability": "view",
      "type": "function"
    },
    {
      "inputs": [
        {
          "internalType": "uint256",
          "name": "nombre",
          "type": "uint256"
        }
      ],
      "name": "ajouterNombre",
      "outputs": [],
      "stateMutability": "nonpayable",
      "type": "function"
    },
    {
      "inputs": [
        {
          "internalType": "uint256",
          "name": "index",
          "type": "uint256"
        }
      ],
      "name": "getElement",
      "outputs": [
        {
          "internalType": "uint256",
          "name": "",
          "type": "uint256"
        }
      ],
      "stateMutability": "view",
      "type": "function"
    },
    {
      "inputs": [],
      "name": "afficheTableau",
      "outputs": [
        {
          "internalType": "uint256[]",
          "name": "",
          "type": "uint256[]"
        }
      ],
      "stateMutability": "view",
      "type": "function"
    },
    {
      "inputs": [],
      "name": "calculerSomme",
      "outputs": [
        {
          "internalType": "uint256",
          "name": "",
          "type": "uint256"
        }
      ],
      "stateMutability": "view",
      "type": "function"
    }
  ],
  "bytecode": "0x608060405234801561001057600080fd5b50600067ffffffffffffffff81111561002c5761002b6100e0565b5b60405190808252806020026020018201604052801561005a5781602001602082028036833780820191505090505b5060009080519060200190610070929190610076565b5061010f565b8280548282559060005260206000209081019282156100b2579160200282015b828111156100b1578251825591602001919060010190610096565b5b5090506100bf91906100c3565b5090565b5b808211156100dc5760008160009055506001016100c4565b5090565b7f4e487b7100000000000000000000000000000000000000000000000000000000600052604160045260246000fd5b6105ad8061011e6000396000f3fe608060405234801561001057600080fd5b50600436106100575760003560e01c80631f4440b01461005c5780633a7d22bc1461007a5780637692fb5f146100aa578063bd92c667146100da578063e66df334146100f6575b600080fd5b610064610114565b6040516100719190610350565b60405180910390f35b610094600480360381019061008f91906103a3565b61016c565b6040516100a191906103df565b60405180910390f35b6100c460048036038101906100bf91906103a3565b6101da565b6040516100d191906103df565b60405180910390f35b6100f460048036038101906100ef91906103a3565b6101fe565b005b6100fe61022a565b60405161010b91906103df565b60405180910390f35b6060600080548060200260200160405190810160405280929190818152602001828054801561016257602002820191906000526020600020905b81548152602001906001019080831161014e575b5050505050905090565b6000808054905082106101b4576040517f08c379a00000000000000000000000000000000000000000000000000000000081526004016101ab9061047d565b60405180910390fd5b600082815481106101c8576101c761049d565b5b90600052602060002001549050919050565b600081815481106101ea57600080fd5b906000526020600020016000915090505481565b600081908060018154018082558091505060019003906000526020600020016000909190919091505550565b6000806000905060005b60008054905081101561028057600081815481106102555761025461049d565b5b90600052602060002001548261026b91906104fb565b915080806102789061052f565b915050610234565b508091505090565b600081519050919050565b600082825260208201905092915050565b6000819050602082019050919050565b6000819050919050565b6102c7816102b4565b82525050565b60006102d983836102be565b60208301905092915050565b6000602082019050919050565b60006102fd82610288565b6103078185610293565b9350610312836102a4565b8060005b8381101561034357815161032a88826102cd565b9750610335836102e5565b925050600181019050610316565b5085935050505092915050565b6000602082019050818103600083015261036a81846102f2565b905092915050565b600080fd5b610380816102b4565b811461038b57600080fd5b50565b60008135905061039d81610377565b92915050565b6000602082840312156103b9576103b8610372565b5b60006103c78482850161038e565b91505092915050565b6103d9816102b4565b82525050565b60006020820190506103f460008301846103d0565b92915050565b600082825260208201905092915050565b7f457272657572203a204c27696e64696365206e2765786973746520706173206460008201527f616e73206c65207461626c656175200000000000000000000000000000000000602082015250565b6000610467602f836103fa565b91506104728261040b565b604082019050919050565b600060208201905081810360008301526104968161045a565b9050919050565b7f4e487b7100000000000000000000000000000000000000000000000000000000600052603260045260246000fd5b7f4e487b7100000000000000000000000000000000000000000000000000000000600052601160045260246000fd5b6000610506826102b4565b9150610511836102b4565b9250828201905080821115610529576105286104cc565b5b92915050565b600061053a826102b4565b91507fffffffffffffffffffffffffffffffffffffffffffffffffffffffffffffffff820361056c5761056b6104cc565b5b60018201905091905056fea264697066735822122062a73312cae72f8bd409baf047b20bdf1a8fff15b905df4637d49c1e8072033664736f6c63430008150033",
  "immutableReferences": {},
  "source": "// SPDX-License-Identifier: MIT\npragma solidity >=0.4.22 <0.9.0;\n\ncontract SommeListeNombre {\n\n    uint[] public nombres;\n\n    // Initialisation du tableau dans le constructeur\n    constructor() {\n        nombres = new uint[](0);\n    }\n    //ajouer un nombre dans le tableau\n\n    function ajouterNombre(uint nombre) public {\n        nombres.push(nombre);\n    }\n\n    // recuperation de element du tableau a partir de son indice\n    function getElement(uint index) public view returns (uint) {\n        require(index < nombres.length, \"Erreur : L'indice n'existe pas dans le tableau \");\n        return nombres[index];\n    }\n    //affichage\n\n    function afficheTableau() public view returns (uint[] memory) {\n        return nombres;\n    }\n    //calcul de la somme de la liste de nombres\n\n    function calculerSomme() public view returns (uint) {\n        uint somme = 0;\n        for (uint i = 0; i < nombres.length; i++) {\n            somme += nombres[i];\n        }\n        return somme;\n    }\n}\n\n",
  "sourcePath": "D:\\FST_PROJETS\\blockChain_Projet\\contracts\\SommeListeNombre.sol",
  "compiler": {
    "name": "solc",
    "version": "0.8.21+commit.d9974bed.Emscripten.clang"
  },
  "schemaVersion": "3.4.16",
  "updatedAt": "2026-06-07T02:56:39.101Z",
  "devdoc": {
    "kind": "dev",
    "methods": {},
    "version": 1
  },
  "userdoc": {
    "kind": "user",
    "methods": {},
    "version": 1
  }
}