{
  "contractName": "Addition",
  "abi": [
    {
      "inputs": [],
      "name": "num1",
      "outputs": [
        {
          "internalType": "uint256",
          "name": "",
          "type": "uint256"
        }
      ],
      "stateMutability": "view",
      "type": "function"
    },
    {
      "inputs": [],
      "name": "num2",
      "outputs": [
        {
          "internalType": "uint256",
          "name": "",
          "type": "uint256"
        }
      ],
      "stateMutability": "view",
      "type": "function"
    },
    {
      "inputs": [],
      "name": "addition1",
      "outputs": [
        {
          "internalType": "uint256",
          "name": "",
          "type": "uint256"
        }
      ],
      "stateMutability": "view",
      "type": "function"
    },
    {
      "inputs": [
        {
          "internalType": "uint256",
          "name": "a",
          "type": "uint256"
        },
        {
          "internalType": "uint256",
          "name": "b",
          "type": "uint256"
        }
      ],
      "name": "addition2",
      "outputs": [
        {
          "internalType": "uint256",
          "name": "",
          "type": "uint256"
        }
      ],
      "stateMutability": "pure",
      "type": "function"
    }
  ],
  "bytecode": "0x6080604052600a5f556014600155348015610018575f80fd5b50610240806100265f395ff3fe608060405234801561000f575f80fd5b506004361061004a575f3560e01c806315d4266c1461004e5780633b9eac4b1461006c5780634d3e46e41461008a578063f1d16438146100a8575b5f80fd5b6100566100d8565b6040516100639190610125565b60405180910390f35b6100746100de565b6040516100819190610125565b60405180910390f35b6100926100e3565b60405161009f9190610125565b60405180910390f35b6100c260048036038101906100bd919061016c565b6100f8565b6040516100cf9190610125565b60405180910390f35b60015481565b5f5481565b5f6001545f546100f391906101d7565b905090565b5f818361010591906101d7565b905092915050565b5f819050919050565b61011f8161010d565b82525050565b5f6020820190506101385f830184610116565b92915050565b5f80fd5b61014b8161010d565b8114610155575f80fd5b50565b5f8135905061016681610142565b92915050565b5f80604083850312156101825761018161013e565b5b5f61018f85828601610158565b92505060206101a085828601610158565b9150509250929050565b7f4e487b71000000000000000000000000000000000000000000000000000000005f52601160045260245ffd5b5f6101e18261010d565b91506101ec8361010d565b9250828201905080821115610204576102036101aa565b5b9291505056fea264697066735822122073904f0cdc801dc5ab328bc70832a5d761a826ad61e583b8d27e54246cc0319b64736f6c63430008150033",
  "immutableReferences": {},
  "source": "// SPDX-License-Identifier: MIT\npragma solidity ^0.8.20;\n\ncontract Addition {\n    // Variables d'etat\n    uint public num1 = 10;\n    uint public num2 = 20;\n\n    // la premiere fonction  de type vierw qui permet de calculer la somme des deux nombres stocker dans des variables d'etat \n    function addition1() public view returns (uint) {\n        return num1 + num2;\n    }\n\n    // la deuxiemme fontion de type pure qui permet de calculer la somme de deux nombres passer en parametre sans utiliser les variables d'etat\n    function addition2(uint a, uint b) public pure returns (uint) {\n        return a + b;\n    }\n}\n",
  "sourcePath": "D:\\FST_PROJETS\\blockChain_Projet\\contracts\\Addition.sol",
  "compiler": {
    "name": "solc",
    "version": "0.8.21+commit.d9974bed.Emscripten.clang"
  },
  "schemaVersion": "3.4.16",
  "updatedAt": "2026-06-01T21:12:46.397Z",
  "devdoc": {
    "kind": "dev",
    "methods": {},
    "version": 1
  },
  "userdoc": {
    "kind": "user",
    "methods": {},
    "version": 1
  }
}